{
  "contractName": "ProofOfExistence2",
  "abi": [
    {
      "inputs": [
        {
          "internalType": "bytes32",
          "name": "proof",
          "type": "bytes32"
        }
      ],
      "name": "storeProof",
      "outputs": [],
      "stateMutability": "nonpayable",
      "type": "function"
    },
    {
      "inputs": [
        {
          "internalType": "string",
          "name": "document",
          "type": "string"
        }
      ],
      "name": "notarize",
      "outputs": [],
      "stateMutability": "nonpayable",
      "type": "function"
    },
    {
      "inputs": [
        {
          "internalType": "string",
          "name": "document",
          "type": "string"
        }
      ],
      "name": "proofFor",
      "outputs": [
        {
          "internalType": "bytes32",
          "name": "",
          "type": "bytes32"
        }
      ],
      "stateMutability": "pure",
      "type": "function",
      "constant": true
    },
    {
      "inputs": [
        {
          "internalType": "string",
          "name": "document",
          "type": "string"
        }
      ],
      "name": "checkDocument",
      "outputs": [
        {
          "internalType": "bool",
          "name": "",
          "type": "bool"
        }
      ],
      "stateMutability": "view",
      "type": "function",
      "constant": true
    }
  ],
  "bytecode": "0x608060405234801561001057600080fd5b5061078e806100206000396000f3fe608060405234801561001057600080fd5b506004361061004c5760003560e01c806353fb9233146100515780637183616c146100815780638952877b1461009d578063f6c1acdf146100b9575b600080fd5b61006b600480360381019061006691906103c7565b6100e9565b604051610078919061042b565b60405180910390f35b61009b600480360381019061009691906104a6565b610108565b005b6100b760048036038101906100b29190610529565b610167565b005b6100d360048036038101906100ce91906103c7565b610193565b6040516100e09190610565565b60405180910390f35b6000806100f583610193565b90506101008161020b565b915050919050565b600061015783838080601f016020809104026020016040519081016040528093929190818152602001838380828437600081840152601f19601f82011690508083019250505050505050610193565b905061016281610167565b505050565b600081908060018154018082558091505060019003906000526020600020016000909190919091505550565b60006002826040516020016101a891906105f1565b6040516020818303038152906040526040516101c4919061064f565b602060405180830381855afa1580156101e1573d6000803e3d6000fd5b5050506040513d601f19601f82011682018060405250810190610204919061067b565b9050919050565b600080600090505b600080549050811015610262578260008281548110610235576102346106a8565b5b90600052602060002001540361024f576001915050610268565b808061025a90610710565b915050610213565b50600090505b919050565b6000604051905090565b600080fd5b600080fd5b600080fd5b600080fd5b6000601f19601f8301169050919050565b7f4e487b7100000000000000000000000000000000000000000000000000000000600052604160045260246000fd5b6102d48261028b565b810181811067ffffffffffffffff821117156102f3576102f261029c565b5b80604052505050565b600061030661026d565b905061031282826102cb565b919050565b600067ffffffffffffffff8211156103325761033161029c565b5b61033b8261028b565b9050602081019050919050565b82818337600083830152505050565b600061036a61036584610317565b6102fc565b90508281526020810184848401111561038657610385610286565b5b610391848285610348565b509392505050565b600082601f8301126103ae576103ad610281565b5b81356103be848260208601610357565b91505092915050565b6000602082840312156103dd576103dc610277565b5b600082013567ffffffffffffffff8111156103fb576103fa61027c565b5b61040784828501610399565b91505092915050565b60008115159050919050565b61042581610410565b82525050565b6000602082019050610440600083018461041c565b92915050565b600080fd5b600080fd5b60008083601f84011261046657610465610281565b5b8235905067ffffffffffffffff81111561048357610482610446565b5b60208301915083600182028301111561049f5761049e61044b565b5b9250929050565b600080602083850312156104bd576104bc610277565b5b600083013567ffffffffffffffff8111156104db576104da61027c565b5b6104e785828601610450565b92509250509250929050565b6000819050919050565b610506816104f3565b811461051157600080fd5b50565b600081359050610523816104fd565b92915050565b60006020828403121561053f5761053e610277565b5b600061054d84828501610514565b91505092915050565b61055f816104f3565b82525050565b600060208201905061057a6000830184610556565b92915050565b600081519050919050565b600081905092915050565b60005b838110156105b4578082015181840152602081019050610599565b60008484015250505050565b60006105cb82610580565b6105d5818561058b565b93506105e5818560208601610596565b80840191505092915050565b60006105fd82846105c0565b915081905092915050565b600081519050919050565b600081905092915050565b600061062982610608565b6106338185610613565b9350610643818560208601610596565b80840191505092915050565b600061065b828461061e565b915081905092915050565b600081519050610675816104fd565b92915050565b60006020828403121561069157610690610277565b5b600061069f84828501610666565b91505092915050565b7f4e487b7100000000000000000000000000000000000000000000000000000000600052603260045260246000fd5b7f4e487b7100000000000000000000000000000000000000000000000000000000600052601160045260246000fd5b6000819050919050565b600061071b82610706565b91507fffffffffffffffffffffffffffffffffffffffffffffffffffffffffffffffff820361074d5761074c6106d7565b5b60018201905091905056fea26469706673582212209b6aec2de31417774660270b157dc022a1dea638858f1d2b6c1464799a80b01764736f6c63430008110033",
  "immutableReferences": {},
  "source": "// SPDX-License-Identifier: MIT\npragma solidity >=0.4.22 <0.9.0;\n\ncontract ProofOfExistence2 {\n\n  // state\n  bytes32[] private proofs;\n\n  // store a proof of existence in the contract state\n  // *transactional function*\n  function storeProof(bytes32 proof) \n    public \n  {\n    proofs.push(proof);\n  }\n\n  // calculate and store the proof for a document\n  // *transactional function*\n  function notarize(string calldata document) \n    external \n  {\n    bytes32 proof = proofFor(document);\n    storeProof(proof);\n  }\n\n  // helper function to get a document's sha256\n  // *read-only function*\n  function proofFor(string memory document) \n    pure \n    public \n    returns (bytes32) \n  {\n    return sha256(abi.encodePacked(document));\n  }\n\n  // check if a document has been notarized\n  // *read-only function*\n  function checkDocument(string memory document) \n    public \n    view \n    returns (bool) \n  {\n    bytes32 proof = proofFor(document);\n    return hasProof(proof);\n  }\n\n  // returns true if proof is stored\n  // *read-only function*\n  function hasProof(bytes32 proof) \n    internal \n    view \n    returns (bool) \n  {\n    for (uint256 i = 0; i < proofs.length; i++) {\n      if (proofs[i] == proof) {\n        return true;\n      }\n    }\n    return false;\n  }\n}\n",
  "sourcePath": "/home/bhugs/ConsenSys/proof-of-existence/contracts/ProofOfExistence2.sol",
  "compiler": {
    "name": "solc",
    "version": "0.8.17+commit.8df45f5f.Emscripten.clang"
  },
  "schemaVersion": "3.4.10",
  "updatedAt": "2022-11-20T01:19:25.036Z",
  "networkType": "ethereum",
  "devdoc": {
    "kind": "dev",
    "methods": {},
    "version": 1
  },
  "userdoc": {
    "kind": "user",
    "methods": {},
    "version": 1
  }
}