{
  "contractName": "ProofOfExistence1",
  "abi": [
    {
      "inputs": [],
      "name": "proof",
      "outputs": [
        {
          "internalType": "bytes32",
          "name": "",
          "type": "bytes32"
        }
      ],
      "stateMutability": "view",
      "type": "function",
      "constant": true
    },
    {
      "inputs": [
        {
          "internalType": "string",
          "name": "document",
          "type": "string"
        }
      ],
      "name": "notarize",
      "outputs": [],
      "stateMutability": "nonpayable",
      "type": "function"
    },
    {
      "inputs": [
        {
          "internalType": "string",
          "name": "document",
          "type": "string"
        }
      ],
      "name": "proofFor",
      "outputs": [
        {
          "internalType": "bytes32",
          "name": "",
          "type": "bytes32"
        }
      ],
      "stateMutability": "pure",
      "type": "function",
      "constant": true
    }
  ],
  "bytecode": "0x608060405234801561001057600080fd5b5061048c806100206000396000f3fe608060405234801561001057600080fd5b50600436106100415760003560e01c80637183616c14610046578063f6c1acdf14610062578063faf924cf14610092575b600080fd5b610060600480360381019061005b919061029a565b6100b0565b005b61007c6004803603810190610077919061029a565b6100c2565b60405161008991906102fc565b60405180910390f35b61009a61013a565b6040516100a791906102fc565b60405180910390f35b6100b9816100c2565b60008190555050565b60006002826040516020016100d79190610388565b6040516020818303038152906040526040516100f391906103e6565b602060405180830381855afa158015610110573d6000803e3d6000fd5b5050506040513d601f19601f820116820180604052508101906101339190610429565b9050919050565b60005481565b6000604051905090565b600080fd5b600080fd5b600080fd5b600080fd5b6000601f19601f8301169050919050565b7f4e487b7100000000000000000000000000000000000000000000000000000000600052604160045260246000fd5b6101a78261015e565b810181811067ffffffffffffffff821117156101c6576101c561016f565b5b80604052505050565b60006101d9610140565b90506101e5828261019e565b919050565b600067ffffffffffffffff8211156102055761020461016f565b5b61020e8261015e565b9050602081019050919050565b82818337600083830152505050565b600061023d610238846101ea565b6101cf565b90508281526020810184848401111561025957610258610159565b5b61026484828561021b565b509392505050565b600082601f83011261028157610280610154565b5b813561029184826020860161022a565b91505092915050565b6000602082840312156102b0576102af61014a565b5b600082013567ffffffffffffffff8111156102ce576102cd61014f565b5b6102da8482850161026c565b91505092915050565b6000819050919050565b6102f6816102e3565b82525050565b600060208201905061031160008301846102ed565b92915050565b600081519050919050565b600081905092915050565b60005b8381101561034b578082015181840152602081019050610330565b60008484015250505050565b600061036282610317565b61036c8185610322565b935061037c81856020860161032d565b80840191505092915050565b60006103948284610357565b915081905092915050565b600081519050919050565b600081905092915050565b60006103c08261039f565b6103ca81856103aa565b93506103da81856020860161032d565b80840191505092915050565b60006103f282846103b5565b915081905092915050565b610406816102e3565b811461041157600080fd5b50565b600081519050610423816103fd565b92915050565b60006020828403121561043f5761043e61014a565b5b600061044d84828501610414565b9150509291505056fea2646970667358221220aa6ab99bbfadb2a727ffa5558f30f9c43f96a7f1babf2f886f9d24337e1374fa64736f6c63430008110033",
  "immutableReferences": {},
  "source": "// SPDX-License-Identifier: MIT\npragma solidity >=0.4.22 <0.9.0;\n\ncontract ProofOfExistence1 {\n      // state\n      bytes32 public proof;\n\n      // calculate and store the proof for a document\n      // *transactional function*\n      function notarize(string memory document) public {\n        proof = proofFor(document);\n      }\n\n      // helper function to get a document's sha256\n      // *read-only function*\n      function proofFor(string memory document) public pure returns (bytes32) {\n        return sha256(abi.encodePacked(document));\n      }\n\n}",
  "sourcePath": "/home/bhugs/ConsenSys/proof-of-existence/contracts/ProofOfExistence1.sol",
  "compiler": {
    "name": "solc",
    "version": "0.8.17+commit.8df45f5f.Emscripten.clang"
  },
  "schemaVersion": "3.4.10",
  "updatedAt": "2022-11-20T01:19:25.034Z",
  "networkType": "ethereum",
  "devdoc": {
    "kind": "dev",
    "methods": {},
    "version": 1
  },
  "userdoc": {
    "kind": "user",
    "methods": {},
    "version": 1
  }
}